:04000000B7EF00F066
:100008005082FACF02F0FBCF03F0E9CF04F0EACF39
:1000180005F0E1CF06F0E2CF07F0D9CF08F0DACF4C
:1000280009F0F3CF0AF0F4CF0BF0F6CF0CF0F7CFCE
:100038000DF0F8CF0EF0F5CF0FF0F29E9EAA09D082
:10004800E2EC17F04B6E000E0001876F010E866F11
:100058009E9AF2A205D0000E446E010E436EF292F3
:10006800A1A255D0F80EB36E460EB26E0001FC5137
:100078000001965D0001FD5100019759D8B004D0E8
:100088000001964B972B0AD0000E0001976F000EC7
:10009800966F000E00019B6F010E9A6F0001FE51D2
:1000A80000019E5D0001FF5100019F59D8B00CD09E
:1000B800460E4F18D8B404D0430E4F18D8A404D015
:1000C80000019E4B9F2B0AD0000E00019F6F000E6F
:1000D8009E6F000E0001A16F010EA06F0001FA5182
:1000E8000001985D0001FB5100019959D8B004D076
:1000F8000001984B992B0AD0000E0001996F000E51
:10010800986F000E00019D6F010E9C6FA1929EA238
:100118000BD0490E4F18D8A406D0000E426E010E1F
:10012800416ECA949E929E92F28E0FC0F5FF0EC049
:10013800F8FF0DC0F7FF0CC0F6FF0BC0F4FF0AC0B4
:10014800F3FF09C0DAFF08C0D9FF07C0E2FF06C005
:10015800E1FF05C0EAFF04C0E9FF03C0FBFF02C0DE
:10016800FAFF509211007BEF14F0CD0E0001DD6F05
:10017800000E0001DE6F84EF05F0250E0001F01976
:10018800D8B40BD0C9C0D9FFCAC0DAFFF0C0DFFFAE
:100198000001C94BCA2B84EF05F0000E0001E06F87
:1001A800000EDF6FCBC0F6FFCCC0F7FF0800F5509C
:1001B8002E0AD8A434D00001E08D0001CB4BCC2B03
:1001C800000E0001EF6F000EEE6F1ED0EEC01EF0A5
:1001D800EFC01FF0000E216E0A0E206E6CEC17F0B7
:1001E800CBC0F6FFCCC0F7FF0800F5501E26000E66
:1001F8001F22D00E1E240001EE6FFF0E1F200001EB
:10020800EF6F0001CB4BCC2BCBC0F6FFCCC0F7FF78
:100218000800F550C4EC17F0D8A04AD0D7D7000E84
:100228000001EF6F000EEE6F0001E08941D0000180
:10023800E08557D00001EE510001EF11D8B41FD06E
:100248000001DB510001EE5D0001DC510001EF59B6
:10025800D8B015D0EEC0DBF0EFC0DCF010D0D9C0BC
:10026800D9FFDAC0DAFFC9C0E1FFCAC0E2FFDFCFB9
:10027800E7FF0001D94BDA2B0001C94BCA2B00015B
:10028800DB07D8A0DC070001DB29E9E10001DC2954
:10029800D8B484EF05F0E3D7F00E0001D96F000E53
:1002A8000001DA6F000E0001DC6F010EDB6FC2D7B0
:1002B800CBC0F6FFCCC0F7FF0001CB4BCC2B08001E
:1002C800F5CFF0F00001F051000AD8B493EF05F033
:1002D800640AD8B406D0020AD8B4A9D70F0AD8A499
:1002E800DBD7070E0001E015D8B419D30001E0A947
:1002F80005D0000E0001EF6F060EEE6FDDC0D9FFCE
:10030800DEC0DAFFDECFEBF0DECFECF0DDCFEDF0D4
:10031800030E0001DD27000EDE230001EDAF11D032
:10032800EBC0B3F0ECC0B4F0EDC0B5F040EC17F0A2
:10033800B3C0EBF0B4C0ECF0B5C0EDF0030E0001B3
:10034800DF13000E0001E26F000EE16F0001EB51B8
:100358000001EC110001ED11D8B491D0820E00011A
:10036800D06FFF0E0001D16FEBC0D2F0ECC0D3F01C
:10037800EDC0D4F0EEC0D5F0100E06D00001D89034
:10038800D533D433D333D233E82EF8D70001D25142
:100398000001D0250001E16F000E0001D12100010C
:1003A800E26F0001E107D8A0E207E1C01EF0E2C059
:1003B8001FF0000E216E030E206E6CEC17F01EC0AD
:1003C800E1F01FC0E2F0E1C016F0E2C017F0000E45
:1003D800196E0A0E186EBDEC14F016C0E1F017C0C5
:1003E800E2F00001E2AF04D00001E107D8A0E20783
:1003F8000001E15100085DEC09F0B3C0E3F0B4C0BE
:10040800E4F0B5C0E5F0E3C037F0E4C038F0E5C08B
:1004180039F0EBC03AF0ECC03BF0EDC03CF021EC19
:1004280012F037C0E3F038C0E4F039C0E5F0E3C0BB
:1004380010F0E4C011F0E5C012F0000E136E800E4B
:10044800146E3F0E156EEBEC13F0D8B005D000011A
:10045800E107D8A0E20713D0E3C010F0E4C011F020
:10046800E5C012F0000E136E200E146E410E156ECC
:10047800EBEC13F0D8A003D00001E14BE22B000114
:10048800EFBF08D00001EF511DE10D0E0001EE5D38
:10049800D8B018D0EBC02BF0ECC02CF0EDC02DF08C
:1004A8000001EE5168EC0BF0B3C02EF0B4C02FF091
:1004B800B5C030F09BEC0DF02BC0EBF02CC0ECF08D
:1004C8002DC0EDF00001E2BF08D00001E2512AE1A1
:1004D8000A0E0001E15DD8B025D00001EB51000102
:1004E800EC110001ED11D8B45FD0EBC0BAF0ECC04C
:1004F800BBF0EDC0BCF01BEC0FF00001BA510001DD
:10050800BB110001BC110001BD11D8A44DD00001E0
:10051800E2BF4AD00001E25105E1020E0001E15DAF
:10052800D8A042D0E3C010F0E4C011F0E5C012F04A
:10053800700E136E890E146E400E156EEBEC13F0F0
:10054800D8B003D00001F70E02D00001F80EE12761
:10055800FF0EE2230001E1515DEC09F0B3C0E3F0C6
:10056800B4C0E4F0B5C0E5F0EBC010F0ECC011F099
:10057800EDC012F0E3C013F0E4C014F0E5C015F0CC
:10058800F4EC10F010C0E7F011C0E8F012C0E9F088
:1005980013C0EAF0000E0001EB6F000E0001EC6FD3
:1005A800000E0001ED6F33D0EBC0BAF0ECC0BBF029
:1005B800EDC0BCF01BEC0FF0BAC0E7F0BBC0E8F030
:1005C800BCC0E9F0BDC0EAF0EBC037F0ECC038F0D1
:1005D800EDC039F0E7C018F0E8C019F0E9C01AF02A
:1005E800EAC01BF04BEC16F018C03AF019C03BF00B
:1005F8001AC03CF0CCEC16F037C0EBF038C0ECF089
:1006080039C0EDF0000E0001E26F000EE16F010E3F
:100618000001F06F0A0E0001F019D8B41ED00001D5
:10062800F051040DFB0EF324F66EFD0EF420F76E68
:100638000900F5500001E75D0900F5500001E8598F
:100648000900F5500001E9590900F5500001EA597F
:10065800D8A003D00001F02BDDD7030E0001DF1571
:100668000001D06F000E0001E0150001D16F0001FC
:10067800D0510001D111D8B454D0C9C0D9FFCAC0D3
:10068800DAFF2D0E4CD00001C94BCA2B4AD0E7C067
:1006980010F0E8C011F0E9C012F0EAC013F0000150
:1006A800F051040DFB0EF324F66EFD0EF420F76EE8
:1006B8000900F5CF14F00900F5CF15F00900F5CFC2
:1006C80016F00A00F5CF17F0FFEC14F010C0E3F0B5
:1006D80011C0E4F012C0E5F013C0E6F0E3C01DF06D
:1006E800E4C01EF0E5C01FF0E6C020F00A0E216E3F
:1006F800000E226E000E236E000E246EB8EC15F06C
:100708001DC0E3F01EC0E4F01FC0E5F020C0E6F015
:100718000001E351300FC9C0D9FFCAC0DAFFDF6E4C
:10072800B2D70001F0070001F029D8B40ED0AFD736
:10073800C9C0D9FFCAC0DAFF300EDF6E0001C94B4D
:10074800CA2B0001E107D8A0E2070001E2BF07D0E9
:100758000001E251EDE10001E105D8B0E9D700015F
:10076800EFBF0CD00001EF5105E1090E0001EE5D6D
:10077800D8A004D0080E0001F06F02D0EEC0F0F04F
:100788000001F0510001EE5F000E0001F0BFFF0E06
:100798000001EF5B0001F0510001D8B409D0C9C0D5
:1007A800D9FFCAC0DAFF2E0EDF6E0001C94BCA2B73
:1007B8000001F0515DEC09F0B3C0D6F0B4C0D7F039
:1007C800B5C0D8F0EBC03AF0ECC03BF0EDC03CF05F
:1007D800D6C037F0D7C038F0D8C039F021EC12F0C5
:1007E80037C0BAF038C0BBF039C0BCF01BEC0FF012
:1007F800BAC0E7F0BBC0E8F0BCC0E9F0BDC0EAF0A1
:1008080073D0E7C010F0E8C011F0E9C012F0EAC0F8
:1008180013F00001F051040DFB0EF324F66EFD0EEB
:10082800F420F76E0900F5CF14F00900F5CF15F0A4
:100838000900F5CF16F00A00F5CF17F0FFEC14F019
:1008480010C0E3F011C0E4F012C0E5F013C0E6F008
:10085800E3C01DF0E4C01EF0E5C01FF0E6C020F0C4
:100868000A0E216E000E226E000E236E000E246EFC
:10087800B8EC15F01DC0E3F01EC0E4F01FC0E5F0B1
:1008880020C0E6F00001E351300FC9C0D9FFCAC04B
:10089800DAFFDF6E0001C94BCA2BE7C01DF0E8C0C4
:1008A8001EF0E9C01FF0EAC020F00001F051040D6D
:1008B800FB0EF324F66EFD0EF420F76E0900F5CF5B
:1008C80021F00900F5CF22F00900F5CF23F00A0046
:1008D800F5CF24F0B8EC15F01DC0E7F01EC0E8F025
:1008E8001FC0E9F020C0EAF00001F0070001F0297C
:1008F800D8B40ED086D7C9C0D9FFCAC0DAFF300E27
:10090800DF6E0001C94BCA2B0001EE07D8A0EF0724
:100918000001EE510001EF11D8B4F2D0ECD7DDC0E0
:10092800D9FFDEC0DAFFDECFE7F0DDCFE8F0000167
:10093800000EE8BFFF0EE96FEA6F020E0001DD2727
:10094800000EDE230001EAAF0CD0030E0001DF1316
:100958000001EA1FE91FE81FE76D000EE823E923FD
:10096800EA230001EE510001EF11D8A40DD00001D7
:10097800E7510001E8110001E9110001EA11D8A4CA
:1009880003D00001EE4BEF2B010E0001F06F0A0EB1
:100998000001F019D8B41ED00001F051040DFB0E6F
:1009A800F324F66EFD0EF420F76E0900F5500001F1
:1009B800E75D0900F5500001E8590900F55000010C
:1009C800E9590900F5500001EA59D8A003D00001FF
:1009D800F02BDDD7800E0001F0BF7F0E0001D06F35
:1009E8000001EE510001F05D0001EF51800A0001A5
:1009F800D059D8B003D0EEC0F0F018D00001EF51B4
:100A0800800A0001D06F0001F0510001EE5D800EF8
:100A18000001F0BF7F0E0001D059D8B007D0000107
:100A2800F0510001EE6FEF6BEEBFEF07030E000110
:100A3800DF150001D06F000E0001E0150001D16F35
:100A48000001D0510001D111D8B44FD0C9C0D9FF8D
:100A5800CAC0DAFF2D0EDF6E45D0EEC0D0F0EFC071
:100A6800D1F00001D890D037D1370001D890D037D5
:100A7800D137FB0E0001D025F66EFD0ED121F76EA1
:100A88000900F5CF14F00900F5CF15F00900F5CFEE
:100A980016F00A00F5CF17F0E7C010F0E8C011F023
:100AA800E9C012F0EAC013F0FFEC14F010C01DF01A
:100AB80011C01EF012C01FF013C020F00A0E216EE4
:100AC800000E226E000E236E000E246EB8EC15F098
:100AD8001D50300F0001F06FC9C0D9FFCAC0DAFF3E
:100AE800F0C0DFFF0001C94BCA2B0001EE07D8A0F8
:100AF800EF070001EE29B1E10001EF29D8A4ADD735
:100B0800CBC0F6FFCCC0F7FF0001CB4BCC2B0800C5
:100B1800F5CFF0F00001F051D8A4C1EF00F0C9C042
:100B2800D9FFCAC0DAFF000EDF6E1200000E010105
:100B38004A6F8DD3070E826E00019C0500019D113E
:100B4800D8A41200000E00019D6F000E9C6F000ECD
:100B5800446E010E436E1200000EB16EC2906FEC2F
:100B680018F0A3EC17F06AEC18F0000E0001976F6C
:100B7800000E966F000E00019B6F000E9A6FB30E69
:100B8800156EFF0E166E19EC18F0050E826E000E2B
:100B9800116E000E106E2FEC18F0000E0001A56FFC
:100BA800000EA46F000E00018D6F000E8C6F1200F6
:100BB8000001A0050001A111D8A422D0000E000157
:100BC800916F000E906F0DEC18F010C090F011C0EE
:100BD80091F0D8900001A435D96E0001A535DA6EE0
:100BE800400ED926010EDA2290C0DEFF91C0DDFF4B
:100BF800000E0001A16F000EA06F0001A44BA52BF1
:100C0800030E0001A4190001A511D8A41200000EBA
:100C18000001A56F000EA46F1ED0D8900001A43566
:100C2800D96E0001A535DA6E400ED926010EDA22FA
:100C3800DECF48F1DDCF49F100018C510101482593
:100C480000018C6F00018D510101492100018D6F58
:100C58000001A44BA52B0001A55105E1040E0001DC
:100C6800A45DD8A0DAD78CC048F18DC049F1010144
:100C7800D890493348330101D8904933483348C1A3
:100C88008CF049C18DF01C0E0001C96F010E0001E6
:100C9800CA6F380E0001CB6FFF0E0001CC6F8CC0FD
:100CA800CDF08DC0CEF0B9EC00F01C0E156E010E23
:100CB800166E19EC18F0000E446E010E436E120009
:100CC800000E0001A16F000EA06F1200C90E156E74
:100CD800FF0E166E19EC18F0040E826E000E116EDF
:100CE800010E106E2FEC18F0000E0001A56F000E1B
:100CF800A46F000E00016E6F000E00016F6F000EF2
:100D08000001706F12000001A0050001A111D8A414
:100D1800FAD0000E0001AC6F000EAB6F0DEC18F0AE
:100D280010C0ABF011C0ACF0000E2E6E800E2F6E0E
:100D3800BF0E306EABC018F0ACC019F091EC17F0D4
:100D480018C01FF019C020F01AC021F0000E1C6E48
:100D5800800E1D6E440E1E6EB1EC12F01CC02BF0FE
:100D68001DC02CF01EC02DF09BEC0DF02BC037F0F1
:100D78002CC038F02DC039F0400E3A6E1C0E3B6E78
:100D8800460E3C6E21EC12F037C04BF138C04CF1E6
:100D980039C04DF14BC1BFF04CC1C0F04DC1C1F0DD
:100DA800BDEC0FF0BFC0A8F0C0C0A9F0C1C0AAF048
:100DB800A8C03AF0A9C03BF0AAC03CF0A8C037F0E0
:100DC800A9C038F0AAC039F021EC12F037C04EF1B2
:100DD80038C04FF139C050F17F0E2E6E750E2F6E50
:100DE800390E306E470E3A6EBC0E3B6E330E3C6EBB
:100DF8004EC137F04FC138F050C139F021EC12F034
:100E080037C02BF038C02CF039C02DF09BEC0DF01A
:100E18002BC051F12CC052F12DC053F1000E1C6EA5
:100E2800800E1D6E3F0E1E6E000E2E6E940E2F6EDF
:100E38003A0E306EA8C03AF0A9C03BF0AAC03CF008
:100E480051C137F052C138F053C139F021EC12F0DA
:100E580037C02BF038C02CF039C02DF09BEC0DF0CA
:100E68002BC01FF02CC020F02DC021F0B1EC12F0E7
:100E78001CC0A8F01DC0A9F01EC0AAF0A8C02BF085
:100E8800A9C02CF0AAC02DF0930E2E6E880E2F6EDE
:100E9800C30E306E9BEC0DF02BC0A8F02CC0A9F04F
:100EA8002DC0AAF0A4C01EF0A5C01FF0000E216E30
:100EB800030E206E6CEC17F0340E1E24D96E010E52
:100EC8001F20DA6EA8C0DEFFA9C0DEFFAAC0DEFFC1
:100ED80071C010F072C011F073C012F0000E136EE2
:100EE800480E146E420E156EEBEC13F0D8B002D01B
:100EF800818A01D0819A0001A44BA52B000E000124
:100F0800A16F000EA06F040E0001A4190001A51125
:100F1800D8A41200000E0001A56F000EA46F27D000
:100F2800A4C01EF0A5C01FF0000E216E030E206E97
:100F38006CEC17F0340E1E24D96E010E1F20DA6EE9
:100F4800DECF2BF0DECF2CF0DDCF2DF06EC02EF0F3
:100F58006FC02FF070C030F09BEC0DF02BC06EF01E
:100F68002CC06FF02DC070F00001A44BA52B000120
:100F7800A55105E1040E0001A45DD8A0D1D76EC02B
:100F88001CF06FC01DF070C01EF0000E1F6E800EAA
:100F9800206E400E216EB1EC12F01CC06EF01DC028
:100FA8006FF01EC070F01C0E0001C96F010E000129
:100FB800CA6FD30E0001CB6FFE0E0001CC6F6EC05E
:100FC800CDF06FC0CEF070C0CFF0B9EC00F01C0EC1
:100FD800156E010E166E19EC18F0000E446E010E17
:100FE800436E1200000E0001A16F000EA06F1200E8
:100FF800070E826E939881889D82000ECA6E9E921B
:10100800000ECC6ECA50FC0B0109CA6E12005AECD5
:1010180010F000018451000182250101486F000190
:101028008551000183210101496F000188510101A7
:101038004827000189510101492300018A51010112
:10104800482700018B5101014923FF0E0101481770
:10105800000E491700017C51010148195CE10001AB
:101068007D5101014919D8A456D00001A6510001AB
:10107800A711D8B41BD01C0E0001C96F010E0001C6
:10108800CA6FF50E0001CB6FFE0E0001CC6F77C062
:10109800CDF078C0CEF079C0CFF0B9EC00F01C0EDE
:1010A800156E010E166E19EC18F01AD01C0E000100
:1010B800C96F010E0001CA6F170E0001CB6FFF0E3A
:1010C8000001CC6F77C0CDF078C0CEF079C0CFF0FA
:1010D800B9EC00F01C0E156E010E166E19EC18F026
:1010E8001C0E0001C96F010E0001CA6F590E0001E4
:1010F800CB6FFF0E0001CC6F74C0CDF075C0CEF081
:1011080076C0CFF0B9EC00F01C0E156E010E166E0D
:1011180019EC18F006D08C0E156EFE0E166E19EC32
:1011280018F0000E446E010E436E120039EC18F0F0
:10113800120000019A0500019B11D8A41200050EA7
:101148000001B66F300E8FEC0CF0B6C06BF0B7C074
:101158006CF0B8C06DF0280E0001C96F010E0001D7
:10116800CA6F780E0001CB6FFF0E0001CC6F6BC009
:10117800CDF06CC0CEF06DC0CFF0B9EC00F0280E09
:10118800156E010E166E19EC18F0000E00019B6F1B
:10119800000E9A6F000E446E010E436E1200E90EA7
:1011A800156EFF0E166E19EC18F01200000E116E77
:1011B800090E106E2FEC18F0120000019A050001BC
:1011C8009B11D8A41200000E0001936F000E926FBD
:1011D8000DEC18F010C092F011C093F01C0E000135
:1011E800C96F010E0001CA6F970E0001CB6FFF0E89
:1011F8000001CC6F92C0CDF093C0CEF0B9EC00F0F6
:101208001C0E156E010E166E19EC18F0000E00017A
:101218009B6F000E9A6F000E446E010E436E120013
:10122800F50E156EFF0E166E19EC18F06FEC18F02F
:10123800000ECA6E6DEC18F0DC0E156EFF0E166E01
:1012480019EC18F01200010E01014A6F12004F50FC
:10125800410AD8B46FD4030AD8B47ED4010AD8B4EA
:10126800A7D4070AD8B42CD5010AD8B42FD5030AB5
:10127800D8B449D5010AD8B4B5D60F0AD8B4B8D667
:10128800010AD8B4C4D6030AD8B41200060AD8B4DE
:101298004DD7010AD8B44DD7030AD8B480D7010A6C
:1012A800D8B4BED71F0AD8B481D7010AD8B485D715
:1012B800CAD70001B96F0001B9AF04D10001B96DF7
:1012C8000001B951800A120FD8A094D0000E216EE7
:1012D800030E206E000E196E0A0E186E000E136EA5
:1012E800640E126E0001B951106E116A10BE11061B
:1012F80080EC15F010C016F011C017F0BDEC14F01A
:10130800090E16241E6E000E17201F6E6CEC17F0C7
:10131800230E1E24F66EFE0E1F20F76E0900F5CF71
:101328003AF00900F5CF3BF00A00F5CF3CF0000E8B
:10133800196E640E186E0001B951166E176A16BE42
:101348001706BDEC14F0120E16241E6E000E1720A0
:101358001F6E000E216E030E206E6CEC17F0230E2C
:101368001E24F66EFE0E1F20F76E0900F5CF37F02B
:101378000900F5CF38F00A00F5CF39F021EC12F06A
:1013880037C0B6F038C0B7F039C0B8F0B6C037F0DB
:10139800B7C038F0B8C039F0000E216E030E206EC9
:1013A800000E136E0A0E126E0001B951106E116A0A
:1013B80010BE110680EC15F010C01EF011C01FF011
:1013C8006CEC17F0230E1E24F66EFE0E1F20F76E2F
:1013D8000900F5CF3AF00900F5CF3BF00A00F5CF48
:1013E8003CF021EC12F037C0B3F038C0B4F039C08B
:1013F800B5F012000001B951800A750FD8A04FD07E
:10140800000E196E0A0E186E0001B951166E176A91
:1014180016BE1706BDEC14F0090E16241E6E000E3B
:1014280017201F6E000E216E030E206E6CEC17F055
:10143800230E1E24F66EFE0E1F20F76E0900F5CF50
:1014480037F00900F5CF38F00A00F5CF39F0000E73
:10145800216E030E206E000E136E0A0E126E00012E
:10146800B951106E116A10BE110680EC15F010C04B
:101478001EF011C01FF06CEC17F0230E1E24F66E40
:10148800FE0E1F20F76E0900F5CF3AF00900F5CFE0
:101498003BF00A00F5CF3CF021EC12F0A4D7000194
:1014A800B951030D230EF324F66EFE0EF420F76EE9
:1014B8000900F5CFB3F00900F5CFB4F00A00F5CF75
:1014C800B5F012000001B951800A120FD8A094D0CB
:1014D800000E216E030E206E000E196E0A0E186E95
:1014E800000E136E640E126E0001B951106E116A6F
:1014F80010BE110680EC15F010C016F011C017F0E0
:10150800BDEC14F0090E16241E6E000E17201F6E77
:101518006CEC17F04A0E1E24F66EFE0E1F20F76EB6
:101528000900F5CF3AF00900F5CF3BF00A00F5CFF6
:101538003CF0000E196E640E186E0001B951166E5B
:10154800176A16BE1706BDEC14F0120E16241E6E8E
:10155800000E17201F6E000E216E030E206E6CEC1D
:1015680017F04A0E1E24F66EFE0E1F20F76E0900B5
:10157800F5CF37F00900F5CF38F00A00F5CF39F08C
:1015880021EC12F037C0B6F038C0B7F039C0B8F067
:10159800B6C037F0B7C038F0B8C039F0000E216EC9
:1015A800030E206E000E136E0A0E126E0001B95162
:1015B800106E116A10BE110680EC15F010C01EF0F6
:1015C80011C01FF06CEC17F04A0E1E24F66EFE0ECA
:1015D8001F20F76E0900F5CF3AF00900F5CF3BF070
:1015E8000A00F5CF3CF021EC12F037C0B3F038C058
:1015F800B4F039C0B5F012000001B951800A750F76
:10160800D8A04FD0000E196E0A0E186E0001B951FD
:10161800166E176A16BE1706BDEC14F0090E1624CE
:101628001E6E000E17201F6E000E216E030E206E18
:101638006CEC17F04A0E1E24F66EFE0E1F20F76E95
:101648000900F5CF37F00900F5CF38F00A00F5CFDB
:1016580039F0000E216E030E206E000E136E0A0E76
:10166800126E0001B951106E116A10BE110680EC9D
:1016780015F010C01EF011C01FF06CEC17F04A0EE8
:101688001E24F66EFE0E1F20F76E0900F5CF3AF005
:101698000900F5CF3BF00A00F5CF3CF021EC12F041
:1016A800A4D70001B951030D4A0EF324F66EFE0EBD
:1016B800F420F76E0900F5CFB3F00900F5CFB4F0C8
:1016C8000A00F5CFB5F012000001BC6F6D0E0001E5
:1016D800BC659FD0000E216E030E206E000E196EA1
:1016E8000A0E186E000E136E640E126EBCC010F057
:1016F800116A80EC15F010C016F011C017F0BDEC9F
:1017080014F0090E16241E6E000E17201F6E6CECC6
:1017180017F0230E1E24F66EFE0E1F20F76E09002A
:10172800F5CF3AF00900F5CF3BF00A00F5CF3CF0D1
:10173800000E196E640E186EBCC016F0176ABDEC68
:1017480014F0120E16241E6E000E17201F6E000EC7
:10175800216E030E206E6CEC17F0230E1E24F66E1D
:10176800FE0E1F20F76E0900F5CF37F00900F5CF00
:1017780038F00A00F5CF39F021EC12F037C0B9F093
:1017880038C0BAF039C0BBF0000E216E030E206ECF
:10179800000E136E0A0E126EBCC010F0116A80ECB7
:1017A80015F010C01EF011C01FF06CEC17F0230EDE
:1017B8001E24F66EFE0E1F20F76E0900F5CF3AF0D4
:1017C8000900F5CF3BF00A00F5CF3CF0B9C037F07F
:1017D800BAC038F0BBC039F021EC12F037C0B6F00F
:1017E80038C0B7F039C0B8F0B6C037F0B7C038F075
:1017F800B8C039F0000E3A6E000E3B6E3F0E3C6EDC
:1018080021EC12F037C0B3F038C0B4F039C0B5F0ED
:1018180012000A0E0001BC655DD0000E216E030E99
:10182800206E000E136E0A0E126EBCC010F0116A04
:1018380080EC15F010C01EF011C01FF06CEC17F012
:10184800230E1E24F66EFE0E1F20F76E0900F5CF3C
:101858003AF00900F5CF3BF00A00F5CF3CF0000E56
:10186800196E0A0E186EBCC016F0176ABDEC14F09B
:10187800090E16241E6E000E17201F6E000E216E14
:10188800030E206E6CEC17F0230E1E24F66EFE0E6F
:101898001F20F76E0900F5CF37F00900F5CF38F0B3
:1018A8000A00F5CF39F021EC12F037C0B9F038C092
:1018B800BAF039C0BBF0B9C037F0BAC038F0BBC015
:1018C80039F0000E3A6E000E3B6E3F0E3C6E21EC76
:1018D80012F098D70001BC51030D230EF324F66EC5
:1018E800FE0EF420F76E0900F5CF37F00900F5CFAA
:1018F80038F00A00F5CF39F0000E3A6E000E3B6E54
:101908003F0E3C6E21EC12F037C0B3F038C0B4F093
:1019180039C0B5F012000001C16F000E0001C36F9D
:10192800000E0001C26F000E0001BA6F000EB96F01
:10193800000E0001BE6F000E0001BF6F000E000117
:10194800C06F5DEC18F0C580C5B0FED763EC18F029
:101958000001C151A6EC16F063EC18F067EC18F022
:101968000001B651A6EC16F063EC18F067EC18F01D
:10197800EA0E406EC30EE82EFED7402EFCD700F0CC
:10198800EA0E406EC30EE82EFED7402EFCD700F0BC
:101998005DEC18F0C582C5B2FED763EC18F0000103
:1019A800C129A6EC16F063EC18F067EC18F05DECB2
:1019B80018F0F1EC17F00001C36F63EC18F0C59A4A
:1019C800C588C5B8FED75DEC18F0F1EC17F000013A
:1019D800C26F63EC18F05DEC18F0C58AC588C5B80D
:1019E800FED763EC18F05DEC18F0C584C5B4FED7DB
:1019F80063EC18F043EC18F00001C3511F0B000111
:101A0800C36F0001C3A954D00001C3510F0B0001DB
:101A1800C36F000E1F6E800E206E410E216E0001F6
:101A2800C2517FEC17F018C01CF019C01DF01AC085
:101A38001EF0B1EC12F01CC02EF01DC02FF01EC01D
:101A480030F0000E3A6E800E3B6E410E3C6E000187
:101A5800C3517FEC17F018C037F019C038F01AC01E
:101A680039F021EC12F037C02BF038C02CF039C017
:101A78002DF09BEC0DF02BC0B3F02CC0B4F02DC0B2
:101A8800B5F040EC17F0B3C0BBF0B4C0BCF0B5C0C3
:101A9800BDF0BBC02BF0BCC02CF0BDC02DF0000EBB
:101AA8002E6E800E2F6E430E306E9BEC0DF032D0F2
:101AB800000E3A6E800E3B6E410E3C6E0001C35123
:101AC8007FEC17F018C037F019C038F01AC039F099
:101AD80021EC12F037C02BF038C02CF039C02DF0B3
:101AE800000E1F6E800E206E410E216E0001C25145
:101AF8007FEC17F018C01CF019C01DF01AC01EF0BA
:101B0800B1EC12F01CC02EF01DC02FF01EC030F03A
:101B18009BEC0DF02BC0BEF02CC0BFF02DC0C0F068
:101B2800BEC0B6F0BFC0B7F0C0C0B8F012002DC03C
:101B380031F0326A336A2C34313601E33280315065
:101B4800366E30C031F0326A336A2F34313601E3F1
:101B580032803150356E3650D8B40BD03550365CA3
:101B6800D8B00ED0365000083524316E180E3164C6
:101B780007D02EC02BF02FC02CF030C02DF0120053
:101B88003550D8B40BD03650355CD8B00ED035505F
:101B980000083624316E180E316407D02BC02BF0A4
:101BA8002CC02CF02DC02DF01200060E346E2DBE68
:101BB800348E30BE348C2C8EFF0E2B16FF0E2C1656
:101BC800000E2D162F8EFF0E2E16FF0E2F16000E4E
:101BD80030163550365CD8B01BD0D8902E362F36FC
:101BE8003036350636503518D8B40DD0340634C0E2
:101BF80031F0070E3116D8B406D0EFD7D8902D3271
:101C08002C322B32362A35503618D8B41FD0F6D796
:101C18003650355CD8B01AD0D8902B362C362D36A5
:101C2800360636503518D8B40DD0340634C031F0E5
:101C3800070E3116D8B406D0EFD7D89030322F32ED
:101C48002E32352A35503618D8A4F7D734AE0CD0F2
:101C5800FF0E2B1AFF0E2C1AFF0E2D1A010E2B2623
:101C6800000E2C22000E2D2234AC0CD0FF0E2E1AA2
:101C7800FF0E2F1AFF0E301A010E2E26000E2F22ED
:101C8800000E3022000E346E2B502E262C502F22A0
:101C98002D50302230AE0ED0FF0E2E1AFF0E2F1A06
:101CA800FF0E301A010E2E26000E2F22000E3022B3
:101CB800010E346E2EC010F02FC011F030C012F09B
:101CC80036C013F034C014F094EC13F010C02BF0AD
:101CD80011C02CF012C02DF01200000E106E75D03D
:101CE80043044410D8A407D0420E4F6E000E446E31
:101CF800000E436E1200410E4F6E1200430E4F6EDF
:101D0800120043044410D8A407D0440E4F6E000EAE
:101D1800446E000E436E1200430E4F6E1200450EC5
:101D28004F6E1200460E4F6E120043044410D8A4A2
:101D380007D0470E4F6E000E446E000E436E120021
:101D4800460E4F6E1200480E4F6E1200490E4F6E2F
:101D5800120043044410D8A407D04A0E4F6E000E58
:101D6800446E000E436E1200490E4F6E12004C0E68
:101D78004F6E12004D0E4F6E120043044410D8A44B
:101D880007D04E0E4F6E000E446E000E436E1200CA
:101D98004D0E4F6E1200500E4F6E1200510E4F6EC8
:101DA800120043044410D8A407D04F0E4F6E000E03
:101DB800446E000E436E1200510E4F6E1200410E1B
:101DC8004F6E1200010E106E12004F50410AD8B427
:101DD80087D7030AD8B492D7010AD8B492D7070A8A
:101DE800D8B49DD7010AD8B49DD7030AD8B49DD7D3
:101DF800010AD8B4A8D70F0AD8B4A8D7010AD8B40A
:101E0800A8D7030AD8B4B3D7060AD8B4B3D7010AF7
:101E1800D8B4B3D7030AD8B4BED7010AD8B4CFD739
:101E28001F0AD8B4BBD7010AD8B4BBD7CBD7BCC01C
:101E3800BEF00001BF6BC06B0001BB350001BE37AF
:101E480001E3BF810001BE510001C86F0001C85104
:101E5800D8A40AD0000E0001BA6F000EBB6F000EA6
:101E6800BC6F000EBD6F1200170E0001BE6FBAC026
:101E7800BFF0BBC0C0F0BCC0C1F00001BE2900016A
:101E8800C26F05D00001D890C133C033BF33000101
:101E9800C22FF8D70001BF510001C36F0001BB8FEB
:101EA800FF0E0001BA17FF0E0001BB17000E00015C
:101EB800BC170001BA510001C46F0001BB510001F9
:101EC800C56F0001BC510001C66F0001C76B8E0EC3
:101ED8000001C85F0001C8AF1AD00001C851800ACC
:101EE8008F0FD8B00AD0000E0001BA6F000EBB6F7A
:101EF800000EBC6F000EBD6F12000001D890C733F2
:101F0800C633C533C4330001C83FF7D71BD0170EFB
:101F18000001C86512D0000E0001BA6F000EBB6F39
:101F2800000EBC6F000EBD6F12000001D890C437C0
:101F3800C537C637C7370001C8070001C8510001B7
:101F4800D8A4F3D70001C3510001D8B409D00001C7
:101F5800C71FC61FC51FC46D000EC523C623C723D0
:101F6800C4C0BAF0C5C0BBF0C6C0BCF0C7C0BDF0A5
:101F780012000001C1AF0FD0000E0001956F210EB5
:101F8800946F000E0001BF6F000E0001C06F000EBD
:101F98000001C16F12000001BF510001C011000112
:101FA800C111D8A40FD0000E0001956F220E946FB6
:101FB800000E0001BF6F000E0001C06F000E00018F
:101FC800C16F1200000E3A6E000E3B6E400E3C6E62
:101FD800C20E136E000E146EBFC010F0C0C011F018
:101FE800C1C012F033EC14F010C037F011C038F053
:101FF80012C039F021EC12F037C02BF038C02CF0A9
:1020080039C02DF0000E2E6E800E2F6EBF0E306E72
:102018009BEC0DF02BC0BFF02CC0C0F02DC0C1F060
:102028000001C207D8A0C307BFC0B3F0C0C0B4F056
:10203800C1C0B5F0710E0001B66FFE0E0001B76F9A
:10204800000E0001B96F080EB86F24EC13F0B3C08E
:10205800BFF0B4C0C0F0B5C0C1F0720E3A6E310E18
:102068003B6E3F0E3C6EC2C018F0C3C019F00AECBC
:1020780017F018C037F019C038F01AC039F021EC41
:1020880012F037C02BF038C02CF039C02DF0BFC08B
:102098002EF0C0C02FF0C1C030F09BEC0DF02BC06B
:1020A800BFF02CC0C0F02DC0C1F01200B4EC17F086
:1020B80079EC16F010C045F011C046F045504610B6
:1020C800D8A407D0B00E156EFE0E166E19EC18F0D7
:1020D800120040EC15F010C082F011C083F040EC03
:1020E80015F010C084F011C085F040EC15F010C058
:1020F80088F011C089F040EC15F010C08AF011C0CA
:102108008BF040EC15F010C07CF011C07DF0420E51
:10211800E82EFED700F000F09398818800018251E4
:102128002C6E2B6A000184512B100001A26F000154
:1021380085512C100001A36F000188512C6E2B6A69
:1021480000018A512B10496E00018B512C104A6EE8
:10215800000E0001A76F000EA66F4904800E4A58B2
:10216800D8A009D0FF0E49160F0E4A16000E00011E
:10217800A76F010EA66FA2C018F0A3C019F091ECCA
:1021880017F018C01CF019C01DF01AC01EF0000E80
:102198001F6E200E206E410E216EB1EC12F01CC095
:1021A80074F01DC075F01EC076F049C018F04AC022
:1021B80019F091EC17F018C01CF019C01DF01AC0E6
:1021C8001EF0000E1F6E200E206E410E216EB1EC27
:1021D80012F01CC077F01DC078F01EC079F0120014
:1021E80012C016F0176A186A1134163601E3178000
:1021F80016501E6E1E50D8A409D0000E106E000E88
:10220800116E000E126E000E136E120015C016F03D
:10221800176A186A1434163601E3178016501D6EB3
:102228001D50D8A409D0000E106E000E116E000EBD
:10223800126E000E136E1200118EFF0E1016FF0E96
:102248001116000E1216148EFF0E1316FF0E14161A
:10225800000E1516000E196E000E1A6E000E1B6E7B
:10226800000E1C6E7F0E1E5E1D50980F1E5E180E0F
:102278001D6ED89019361A361B361C361350105C52
:102288001450115815501258D8A007D01350105E8A
:102298001450115A1550125A1980D8901036113608
:1022A80012361D2EE6D71EAE16D01E50800A970F86
:1022B800D8B009D0000E106E000E116E000E126E0E
:1022C800000E136E1200D8901C321B321A321932CB
:1022D8001E3EF9D715D0170E1E640FD0000E106ED3
:1022E800000E116E000E126E000E136E1200D890C2
:1022F80019361A361B361C361E061E50D8A4F7D7B8
:1023080019C010F01AC011F01BC012F01CC013F055
:102318001200123413341B6E1B50D8A409D0000EBF
:10232800106E000E116E000E126E000E136E12006B
:10233800153416341A6E1A50D8A409D0000E106E2F
:10234800000E116E000E126E000E136E1200128E29
:10235800FF0E1016FF0E1116FF0E1216000E1316A2
:10236800158EFF0E1316FF0E1416FF0E1516000E0F
:102378001616000E166E000E176E000E186E000E62
:10238800196E7F0E1B5E1A50A00F1B5E200E1A6E70
:10239800D89016361736183619361350105C145064
:1023A80011581550125816501358D8A009D0135068
:1023B800105E1450115A1550125A1650135A16809E
:1023C800D89010361136123613361A2EE1D71BAEB6
:1023D80016D01B50800A9F0FD8B009D0000E106E7F
:1023E800000E116E000E126E000E136E1200D890C1
:1023F80019321832173216321B3EF9D715D01F0E74
:102408001B640FD0000E106E000E116E000E126EBF
:10241800000E136E1200D890163617361836193675
:102428001B061B50D8A4F7D716C010F017C011F020
:1024380018C012F019C013F0120039C03DF03E6AFE
:102448003F6A38343D3601E33E803D500001AD6FB0
:102458000001AD51D8A407D0000E376E000E386EBB
:10246800000E396E12003CC03DF03E6A3F6A3B34B4
:102478003D3601E33E803D500001B26F0001B2518C
:10248800D8A407D0000E376E000E386E000E396ED5
:1024980012000001B2517B0F0001AD2739C0B2F024
:1024A8003C500001B21B800E0001B217388E3B8EE3
:1024B800FF0E3A16FF0E3B16000E3C16000E0001EA
:1024C800AE6F000E0001AF6F000E0001B06F070E77
:1024D8000001B16F37A009D03A500001AE273B5038
:1024E8000001AF233C500001B023D8903932383274
:1024F8003732D8903A363B363C360001B12FEAD70E
:10250800090E0001B16F37A009D03A500001AE277B
:102518003B500001AF233C500001B023D890393222
:10252800383237320001D890B033AF33AE330001C0
:10253800B12FE9D7AEC010F0AFC011F0B0C012F0A3
:10254800ADC013F0B2C014F094EC13F010C037F023
:1025580011C038F012C039F012001EC022F0236AF0
:10256800246A1D34223601E323802250296E295023
:10257800D8A407D0000E1C6E000E1D6E000E1E6E35
:10258800120021C022F0236A246A2034223601E393
:10259800238022502A6E2A50D8A407D0000E1C6E21
:1025A800000E1D6E000E1E6E1200000E266E000E2E
:1025B800276E000E286E2A50890F295E1EC02AF049
:1025C80021502A1A800E2A161D8EFF0E1C16FF0E89
:1025D8001D16000E1E16208EFF0E1F16FF0E20164B
:1025E800000E2116180E256ED89026362736283666
:1025F8001F501C5C20501D5821501E58D8A007D0D1
:102608001F501C5E20501D5A21501E5A2680D890FB
:102618001C361D361E36252EE7D726C010F027C0DB
:1026280011F028C012F029C013F02AC014F094EC5D
:1026380013F010C01CF011C01DF012C01EF01200E3
:10264800B8C01EF0B9C01FF0000E216E030E206E38
:102658006CEC17F0B6C0BAF0B7C0BBF01E50000162
:10266800BA271F500001BB23BAC0F6FFBBC0F7FF53
:102678000900F5CFBCF00900F5CFBDF00A00F5CF91
:10268800BEF041D0BCC03AF0BDC03BF0BEC03CF08B
:10269800B3C037F0B4C038F0B5C039F021EC12F04F
:1026A80037C02BF038C02CF039C02DF0000E216E49
:1026B800030E206E0001B807D8A0B907B8C01EF0F5
:1026C800B9C01FF06CEC17F0B6C0BAF0B7C0BBF0D9
:1026D8001E500001BA271F500001BB23BAC0F6FFE5
:1026E800BBC0F7FF0900F5CF2EF00900F5CF2FF09A
:1026F8000A00F5CF30F09BEC0DF02BC0BCF02CC0DD
:10270800BDF02DC0BEF00001B8510001B911D8A428
:10271800B9D7BCC0B3F0BDC0B4F0BEC0B5F01200AC
:102728001350D8B405D0105011101210D8A40CD0E2
:10273800000E106E000E116E000E126E1200132A9B
:10274800D890123211321032000E1014156E000E8D
:102758001114166EFE0E1214176E1550161017105F
:10276800D8B40CD0ECD7132A010E1026000E112273
:10277800000E1222D890123211321032000E1014AC
:10278800156E000E1114166EFF0E1214176E1550EA
:1027980016101710D8B406D0E6D71306D8901036FE
:1027A8001136123611BE03D0020E1360F6D713A0ED
:1027B800119ED8901332135012121450D8A4128EAE
:1027C80010C010F011C011F012C012F0120012AEB9
:1027D80016D010C016F011C017F012C018F0161E4F
:1027E800171E181E162A000E17221822000E16246D
:1027F800106E000E1720116E800E1820126E15AE86
:1028080016D013C016F014C017F015C018F0161E15
:10281800171E181E162A000E17221822000E16243C
:10282800136E000E1720146E800E1820156E000E01
:10283800101A000E111A800E121A000E131A000E2A
:10284800141A800E151A1350105C14501158155094
:102858001258D8B002D0D8901200D8801200105068
:1028680011101210D8A40FD013C0D9FF14C0DAFF6A
:10287800000EDE6E000EDD6E000E106E000E116E84
:10288800000E126E120012507F0B156E166AD89049
:102898001536163613C0D9FF14C0DAFF15C0DEFF8F
:1028A80016C0DDFF11AE03D0156A152A01D0156ACE
:1028B800155013C0D9FF14C0DAFFDE12000EDD1266
:1028C80013C0D9FF14C0DAFF820EDE26FF0EDD2208
:1028D80012801282128412861288128A129C119E09
:1028E80010C010F011C011F012C012F0120001EE69
:1028F80034F0140EEE6AE806FDE100EE60F04D0ECD
:10290800EE6AE806FDE100EE41F00E0EEE6AE8061A
:10291800FDE14C0EF66E2E0EF76E000EF86E01EE0F
:1029280000F010EE34F00900F5CFEEFFE550E1506D
:10293800FAE1AA0EF66E300EF76E000EF86E00EE93
:10294800F1F010EE0FF00900F5CFEEFFE550E15081
:10295800FAE1E20EF66E300EF76E000EF86E090020
:10296800F5CF4FF050905092000EF86E000158EFDE
:1029780017F0000E1B6E19AE06D0186C191ED8B0D1
:10298800192A010E1B6E17AE06D0166C171ED8B08A
:10299800172A010E1B1A000E1D6E000E1C6E185011
:1029A8001910D8B41CD0010E1A6E04D0D89018365D
:1029B80019361A2A19AEFAD7D8901C361D3618506F
:1029C800165C19501758D8A005D01850165E195023
:1029D800175A1C80D890193218321A2EEDD71B506E
:1029E800D8B404D01C6C1D1ED8B01D2A1CC016F00B
:1029F8001DC017F01200000E186E000E196E000EA2
:102A08001A6E000E1B6E1450151016101710D8B43D
:102A18002AD0010E1C6E06D0D890143615361636FC
:102A280017361C2A17AEF8D7D890183619361A3622
:102A38001B361450105C1550115816501258175068
:102A48001358D8A009D01450105E1550115A1650BA
:102A5800125A1750135A1880D89017321632153256
:102A680014321C2EE1D718C010F019C011F01AC08A
:102A780012F01BC013F01200000E166E000E156E39
:102A88009388000E486E000E476E485030E1080EDD
:102A9800475CD8B02CD081B804D041504210D8B48B
:102AA800FAD7000ECC6ECA8481A804D041504210D7
:102AB800D8B4FAD7CA94310ECC6414D04750000861
:102AC800126E070E1226010E136E000E146E122AD5
:102AD80003D0D89013361436122EFBD71350151284
:102AE80014501612474A482A485001E1D0D715C059
:102AF80010F016C011F01200000E156E11AE06D0BF
:102B0800106C111ED8B0112A010E156E13AE04D028
:102B1800126C131ED8B0132A12501310D8B418D040
:102B2800010E146E04D0D89012361336142A13AE40
:102B3800FAD71250105C13501158D8A004D0125074
:102B4800105E1350115AD89013321232142EF1D746
:102B58001550D8B404D0106C111ED8B0112A10C06A
:102B680010F011C011F0120021502210231024106F
:102B7800D8B424D0010E256E06D0D890213622363E
:102B880023362436252A24AEF8D721501D5C22503E
:102B98001E5823501F5824502058D8A008D0215020
:102BA8001D5E22501E5A23501F5A2450205AD89076
:102BB8002432233222322132252EE7D71DC01DF0C0
:102BC8001EC01EF01FC01FF020C020F01200ACA2D3
:102BD800FED711C0F6FF12C0F7FF000EF86E0F0EF9
:102BE800F76403D00800F55005D0F6CFE9FFF7CF1A
:102BF800EAFFEF504CEC18F01150136E1250146E9F
:102C0800114A122A13C0F6FF14C0F7FF000EF86E1F
:102C18000F0EF76403D00800F55005D0F6CFE9FF92
:102C2800F7CFEAFFEF500009D8B41200D0D7126EE0
:102C3800000EAC6E000EAB6E12B0AC8812A202D0C1
:102C4800AC8CAB8C12B4AC8E12A602D0AB8801D07F
:102C5800AB8A12B8AC849E9812BAAB8612AC02D07A
:102C68009D8A01D09D9A9E9A12AE02D09D8801D06D
:102C78009D9810C0AFFF1150B06EAC8AAB8E949C7B
:102C8800948EACA81200ACBE1200948C12008E0E6A
:102C9800206E06D0D8901B321A3219321832202AE8
:102CA800000E18141C6E000E19141D6E000E1A1456
:102CB8001E6EFF0E1B141F6E1C501D101E101F10C1
:102CC800D8A4E8D718C010F019C011F01AC012F033
:102CD80020C013F0000E146E94EC13F010C018F01E
:102CE80011C019F012C01AF01200000E426E000E48
:102CF800416E000ECC6ECA8481B804D04150421097
:102D0800D8B4FAD741504210D8B405D0000E116E8D
:102D1800000E106E1200000ECC6E81A804D0415037
:102D28004210D8B4FAD741504210D8B405D0000E9A
:102D3800116E000E106E1200CA94000E116E010E74
:102D4800106E1200116E11C0C9FFC6BE1200C65027
:102D58000F0B080AD8B40CD0C6500F0B0B0AD8B406
:102D680007D0C6889EA6FED7C7B41200C750120067
:102D7800C6500F0B080AD8B405D0C6500F0B0B0A63
:102D8800D8A41200C7B0FED743EC18F0C550120003
:102D98003A503B103C10D8B406D0000E3A1A000E38
:102DA8003B1A800E3C1A37C02BF038C02CF039C0C3
:102DB8002DF03AC02EF03BC02FF03CC030F09BEC19
:102DC8000DF02BC037F02CC038F02DC039F01200B0
:102DD800030E926E000E896E000E806E090E936EC1
:102DE800000E8A6E8168F80E946E000E8B6E070EC8
:102DF800826EF28EF28CF292F19CF288F19EF2864B
:102E0800F180700ED36EFFEC17F01200000E1B6EEF
:102E180019AE06D0186C191ED8B0192A010E1B6EEF
:102E280018C010F019C011F0126A8E0E136E1BC074
:102E380014F094EC13F010C018F011C019F012C07F
:102E48001AF0120054656D70203D2030302E30206D
:102E5800430052482020203D2030302E30202500CD
:102E680048656C6C6F20576F726C640048656C6CB9
:102E78006F20576F726C64000001B3510001B411E8
:102E88000001B511D8B409D0000E0001B31B000E23
:102E98000001B41B800E0001B51BB3C0B3F0B4C071
:102EA800B4F0B5C0B5F01200ECEC16F09AEC05F0F1
:102EB80071EC0EF00001860500018711D8A4F6D741
:102EC8004BC04FF0000E0001876F000E866FEED7E3
:102ED8001E502002F3CF22F0F4CF23F01E5021021F
:102EE800F35023261F502002F350232622C01EF041
:102EF80023C01FF012001B6E1B50106E116A126A5D
:102F08008E0E136E000E146E94EC13F010C018F0B1
:102F180011C019F012C01AF0120018C010F019C030
:102F280011F0126A8E0E136E000E146E94EC13F0EC
:102F380010C018F011C019F012C01AF01200A082C7
:102F4800000EB16EB18EB19CB19AB188B196B194B0
:102F5800B192B180F80EB36E460EB26EA192120015
:102F6800939881985E0E106E800EE82EFED7102E74
:102F7800FCD700F000F09388280EE82EFED7120048
:102F8800126E000E116E3A0E126005D02F0E1264EA
:102F980002D0010E116E11C010F010301200116E27
:102FA8003F0EC716000EC66E000EC56E1150C61233
:102FB8001050C71294869488C68A1200F20E4C16D6
:102FC800ABAC03D04C90ABB04C80ABB44C84ABB240
:102FD8004C86AECF01F001501200C6500F0B080A04
:102FE800D8B404D0C6500F0B0B0AD8B4C586C7A0F6
:102FF800FED7C9501200000E116E670E106E7C0EBF
:103008001BEC16F0DC0E156EFF0E166E19EC18F0A0
:103018001200C282C2B2FED7C3CF7AF0C4CF7BF00F
:103028007AC010F07BC011F01200ACA2FED715C018
:1030380011F016C012F0EBEC15F024EC18F01200A9
:10304800ACA2FED70D0E4CEC18F0ACA2FED70A0EBF
:103058004CEC18F0120010C012F012461246C25082
:103068001218C30B1218C26E1200270EC86E800EFB
:10307800106E080ED3EC17F043EC18F01200C5CF11
:1030880010F01F0E1016D8A4FAD7C7A41200F7D74D
:10309800106EACAC03D0AC904CB2AC8010C0ADFF9D
:1030A800120071554048013FD7233C401FE803FAFE
:1030B8000000C598C594C596C592C59012009EA6F5
:1030C800FED79E961200C5AC1200FDD7C280C08EF6
:0C30D8001200C2901200C69A12004100C3
:10FDFA0000010000000A00000064000000E803009F
:10FE0A000010270000A086010040420F008096984B
:10FE1A000000E1F50500CA9A3B00803FCDCC3DD7F2
:10FE2A00233C12833AB7D138C62737388635C0D62D
:10FE3A0033CC2B32708930E7DB2EE53C1E42A20D13
:10FE4A0000803F00204100C842007A44401C4650CE
:10FE5A00C34724744997184BBCBE4C6B6E4E0315AE
:10FE6A005079AD60F3497100000000803FF0FFBE99
:10FE7A00E2A93E8376BEAE2B3E3CC3BDD2133D788B
:10FE8A00D3BB436865636B73756D204572726F727D
:10FE9A0021202020547279696E6720416761696E5A
:10FEAA00202E2E2E20004E6F20726573706F6E7397
:10FEBA0065202066726F6D207468652073656E73A5
:10FECA006F72204448543232004441544120414E1A
:10FEDA00414C4F47203A54656D7065726174757272
:10FEEA0065203D20252E316620430044415441209F
:10FEFA004448543232203A54656D706572617475A3
:10FF0A007265203D202D252E316620430044415440
:10FF1A0041204448543232203A54656D706572610A
:10FF2A0074757265203D20252E31662043004441B8
:10FF3A00544120414E414C4F47203A48756D656403
:10FF4A00616420544945525241203D2025640044B1
:10FF5A00415441204448543232203A48756D69640C
:10FF6A00697479203D20252E3166202525004441DB
:10FF7A00544120493243203A54656D706572617468
:10FF8A00757265203D20252E316620430044415478
:10FF9A0041204C4452203A56616C6F7220416E6186
:10FFAA006C6F67203D20256400416E616C6F67208D
:10FFBA004D6F646520416371756972696E670049A6
:10FFCA003243204D6F646520416371756972696EB1
:10FFDA00670049646C65206D6F6465204F4E004C64
:10FFEA004452206D6F6465204F4E00536C656570F6
:06FFFA0020387300000036
:020000040020DA
:08000000FFFFFFFFFFFFFFFF00
:020000040030CA
:0E000000FF08191EFF8981FF0FC00FE00F409F
:00000001FF
